:020000040000fa
:080000000002040000000000f2
:020000040000fa
:0400080008030000e9
:020000040000fa
:04000c0008030000e5
:020000040000fa
:0400100008030000e1
:020000040000fa
:0400140008030000dd
:020000040000fa
:0400180008030000d9
:020000040000fa
:04001c0008030000d5
:020000040000fa
:0400200008030000d1
:020000040000fa
:0400240008030000cd
:020000040000fa
:0400280008030000c9
:020000040000fa
:04002c0008030000c5
:020000040000fa
:0400300008030000c1
:020000040000fa
:0400340008030000bd
:020000040000fa
:0400380008030000b9
:020000040000fa
:04003c0008030000b5
:020000040000fa
:0400400008030000b1
:020000040000fa
:0400440008030000ad
:020000040000fa
:0400480008030000a9
:020000040000fa
:04004c0008030000a5
:020000040000fa
:0400500008030000a1
:020000040000fa
:04005400c8020000de
:020000040000fa
:040058000803000099
:020000040000fa
:04005c000803000095
:020000040000fa
:040060000803000091
:020000040000fa
:04006400080300008d
:020000040000fa
:040068000803000089
:020000040000fa
:04006c000803000085
:020000040000fa
:040070000803000081
:020000040000fa
:04007400080300007d
:020000040000fa
:040078000803000079
:020000040000fa
:04007c000803000075
:020000040000fa
:040080000803000071
:020000040000fa
:04008400080300006d
:020000040000fa
:040088000803000069
:020000040000fa
:04008c000803000065
:020000040000fa
:040090000803000061
:020000040000fa
:04009400080300005d
:020000040000fa
:040098000803000059
:020000040000fa
:04009c000803000055
:020000040000fa
:0400a0000803000051
:020000040000fa
:0400a400080300004d
:020000040000fa
:0400a8000803000049
:020000040000fa
:0400ac000803000045
:020000040000fa
:0400b0000803000041
:020000040000fa
:0400b400080300003d
:020000040000fa
:0400b8000803000039
:020000040000fa
:0400bc000803000035
:020000040000fa
:0400c0000803000031
:020000040000fa
:0400c400080300002d
:020000040000fa
:0400c8000803000029
:020000040000fa
:0400cc000803000025
:020000040000fa
:0400d0000803000021
:020000040000fa
:0400d400080300001d
:020000040000fa
:0400d8000803000019
:020000040000fa
:0400dc000803000015
:020000040000fa
:0400e0000803000011
:020000040000fa
:0400e400080300000d
:020000040000fa
:0400e8000803000009
:020000040000fa
:0400ec000803000005
:020000040000fa
:0400f0000803000001
:020000040000fa
:0400f40008030000fd
:020000040000fa
:0400f80008030000f9
:020000040000fa
:0400fc0008030000f5
:020000040000fa
:0401000008030000f0
:020000040000fa
:0401040008030000ec
:020000040000fa
:0401080008030000e8
:020000040000fa
:04010c0008030000e4
:020000040000fa
:0401100008030000e0
:020000040000fa
:0401140008030000dc
:020000040000fa
:0401180008030000d8
:020000040000fa
:04011c0008030000d4
:020000040000fa
:0401200008030000d0
:020000040000fa
:0401240008030000cc
:020000040000fa
:0401280008030000c8
:020000040000fa
:04012c0008030000c4
:020000040000fa
:0401300008030000c0
:020000040000fa
:0401340008030000bc
:020000040000fa
:0402080008030000e7
:020000040000fa
:04020c0008030000e3
:020000040000fa
:0402100008030000df
:020000040000fa
:0402140008030000db
:020000040000fa
:0402180008030000d7
:020000040000fa
:04021c0008030000d3
:020000040000fa
:0402200008030000cf
:020000040000fa
:0402240008030000cb
:020000040000fa
:0402280008030000c7
:020000040000fa
:04022c0008030000c3
:020000040000fa
:0402300008030000bf
:020000040000fa
:0402340008030000bb
:020000040000fa
:0402380008030000b7
:020000040000fa
:04023c0008030000b3
:020000040000fa
:0402400008030000af
:020000040000fa
:0402440008030000ab
:020000040000fa
:0402480008030000a7
:020000040000fa
:04024c0008030000a3
:020000040000fa
:04025000080300009f
:020000040000fa
:04025400080300009b
:020000040000fa
:040258000803000097
:020000040000fa
:04025c000803000093
:020000040000fa
:04026000080300008f
:020000040000fa
:04026400080300008b
:020000040000fa
:040268000803000087
:020000040000fa
:04026c000803000083
:020000040000fa
:04027000080300007f
:020000040000fa
:04027400080300007b
:020000040000fa
:040278000803000077
:020000040000fa
:04027c000803000073
:020000040000fa
:04028000080300006f
:020000040000fa
:04028400080300006b
:020000040000fa
:040288000803000067
:020000040000fa
:04028c000803000063
:020000040000fa
:04029000080300005f
:020000040000fa
:04029400080300005b
:020000040000fa
:040298000803000057
:020000040000fa
:04029c000803000053
:020000040000fa
:0402a000080300004f
:020000040000fa
:0402a400080300004b
:020000040000fa
:0402a8000803000047
:020000040000fa
:0402ac000803000043
:020000040000fa
:0402b000080300003f
:020000040000fa
:0402b400080300003b
:020000040000fa
:0402b8000803000037
:020000040000fa
:0402bc000803000033
:020000040000fa
:0402c000080300002f
:020000040000fa
:0402c400080300002b
:020000040000fa
:0402c8000803000027
:020000040000fa
:0402cc000803000023
:020000040000fa
:0402d000080300001f
:020000040000fa
:0402d400080300001b
:020000040000fa
:0402d8000803000017
:020000040000fa
:0402dc000803000013
:020000040000fa
:0402e000080300000f
:020000040000fa
:0402e400080300000b
:020000040000fa
:0402e8000803000007
:020000040000fa
:0402ec000803000003
:020000040000fa
:0402f00008030000ff
:020000040000fa
:0402f40008030000fb
:020000040000fa
:0402f80008030000f7
:020000040000fa
:0402fc0008030000f3
:020000040000fa
:0403000008030000ee
:020000040000fa
:0403040008030000ea
:020000040000fa
:0403080008030000e6
:020000040000fa
:04030c0008030000e2
:020000040000fa
:0403100008030000de
:020000040000fa
:0403140008030000da
:020000040000fa
:0403180008030000d6
:020000040000fa
:04031c0008030000d2
:020000040000fa
:0403200008030000ce
:020000040000fa
:0403240008030000ca
:020000040000fa
:0403280008030000c6
:020000040000fa
:04032c0008030000c2
:020000040000fa
:0403300008030000be
:020000040000fa
:0403340008030000ba
:020000040000fa
:100400000f8020000e7f22000e01880000000000f7
:10041000000020000000e000020032000001200087
:1004200020028800140007007b0007000000e000a5
:1004300003003a0000002000010020000200370005
:100440000000200001002000810f70000100320038
:1004500014000700000020000000e000020032004d
:100460000000020000000000fe0302000000000087
:100470000040da000000fe004440a900c000200057
:100480000000e0000300320000002000a00188000e
:100490004440a800000006008a1f78008b1f7800e7
:1004a0000000060091018800800478000000eb0045
:1004b0001a003700e284440032a0b4009905ba0063
:1004c000e284440032a0b4009906ba00e2844400f9
:1004d00032a0b4000006eb00476fde00fd07b2005b
:1004e000636ce10003003a00ebff07000000eb0043
:1004f0000a003700606ce10004003a00005deb0088
:100500008b05e900fdff3e00040037006168e10053
:10051000010032000086eb000b00070019c7ba008b
:100520001905ba000e04e00003003a000a00e000da
:10053000e0ff3a0000000600fe07b2009e018800be
:100540008a047800f5ff3700395dba008b05e900b1
:100550000c003200295dba008b05e900080032006a
:100560000c00e00003003a00e284440032a0b40032
:10057000f5ff370019ddba008b05e900faff3a00f4
:100580008904e800e184440032a0b40000000600c1
:100590003600f800809fbe00829fbe00849fbe0090
:1005a000869fbe003400f80000002000a0018800f3
:1005b0000200fa00a104800000802000008060009a
:1005c0000000e000090032002104800000802000cb
:1005d000008060000000e000040032006a000700b4
:1005e000004f78001e4078005a0007008560a9007f
:1005f0000080fa003400f9004f03be004f02be0035
:100600004f01be004f00be003600f900004006005a
:0c0610000040da000000fe0000000500c1
:020000040000fa
:10061c005374000061720000740000005465000007
:08062c007374000000000000df
:020000040000fa
:100634000200fa00000f78000001280080088800fa
:100644000621ef00000000001e00780000004000ba
:100654008000780030088000808f5000faff3e0050
:100664000080fa00000006000200fa00000f780083
:1006740000032800800888000621ef000000000025
:100684009e007800f00320000088b9000000780084
:100694008000780030088000808f5000f8ff3e0012
:1006a4000080fa00000006000000fa00f0192000a3
:1006b400c0118800800028008011880000402000bc
:1006c400901188000080fa00000006000000fa0083
:1006d400f01920004011880041058000f0ff280037
:1006e4000080600000c0a000400588008000280051
:1006f40000118800004020001011880011118000b2
:10070400f0f32f0000806000101188009560a800ad
:100714008560a9000080fa00000006000200fa00cb
:10072400004f78000000000011118000002020001c
:10073400008060000000e000fbff3a001e00fb00a8
:10074400201188001e4078000080fa000000060096
:100754000200fa00004f78000000000091118000b0
:1007640000202000008060000000e000fbff3a0051
:100774001e00fb00a01188001e4078000080fa00d3
:10078400000006000200fa0030118000004f7800db
:100794001e4078000080fa00000006000000fa0005
:1007a4000000000090118000610060000000e00083
:1007b400fcff3200b0118000004078000080fa0095
:1007c400000006000200fa00000f78000400370061
:1007d4001e007800104078001e0fe800dcff0700c0
:1007e4001e007800104078000004e000f8ff3a0092
:1007f4000080fa00000006000000fa00b3ff0700c2
:10080400a9ff0700401f200097ff0700e0302800e1
:10081400ecff0700401f200093ff07004031280031
:10082400e8ff0700401f20008fff0700f7ff370095
:020000040000fa
:020000040002f8
:04aff800bd7b00001d
:020000040000fa
:020000040002f8
:04affc007f3f000093
:00000001FF
