:020000040000fa
:080000000002040000000000f2
:020000040000fa
:04000800d002000022
:020000040000fa
:04000c00d00200001e
:020000040000fa
:04001000d00200001a
:020000040000fa
:04001400d002000016
:020000040000fa
:04001800d002000012
:020000040000fa
:04001c00d00200000e
:020000040000fa
:04002000d00200000a
:020000040000fa
:04002400d002000006
:020000040000fa
:04002800d002000002
:020000040000fa
:04002c00d0020000fe
:020000040000fa
:04003000d0020000fa
:020000040000fa
:04003400d0020000f6
:020000040000fa
:04003800d0020000f2
:020000040000fa
:04003c00d0020000ee
:020000040000fa
:04004000d0020000ea
:020000040000fa
:04004400d0020000e6
:020000040000fa
:04004800d0020000e2
:020000040000fa
:04004c00d0020000de
:020000040000fa
:04005000d0020000da
:020000040000fa
:04005400d0020000d6
:020000040000fa
:04005800d0020000d2
:020000040000fa
:04005c00d0020000ce
:020000040000fa
:04006000d0020000ca
:020000040000fa
:04006400d0020000c6
:020000040000fa
:04006800d0020000c2
:020000040000fa
:04006c00d0020000be
:020000040000fa
:04007000d0020000ba
:020000040000fa
:04007400d0020000b6
:020000040000fa
:04007800d0020000b2
:020000040000fa
:04007c00d0020000ae
:020000040000fa
:04008000d0020000aa
:020000040000fa
:04008400d0020000a6
:020000040000fa
:04008800d0020000a2
:020000040000fa
:04008c00d00200009e
:020000040000fa
:04009000d00200009a
:020000040000fa
:04009400d002000096
:020000040000fa
:04009800d002000092
:020000040000fa
:04009c00d00200008e
:020000040000fa
:0400a000d00200008a
:020000040000fa
:0400a400d002000086
:020000040000fa
:0400a800d002000082
:020000040000fa
:0400ac00d00200007e
:020000040000fa
:0400b000d00200007a
:020000040000fa
:0400b400d002000076
:020000040000fa
:0400b800d002000072
:020000040000fa
:0400bc00d00200006e
:020000040000fa
:0400c000d00200006a
:020000040000fa
:0400c400d002000066
:020000040000fa
:0400c800d002000062
:020000040000fa
:0400cc00d00200005e
:020000040000fa
:0400d000d00200005a
:020000040000fa
:0400d400d002000056
:020000040000fa
:0400d800d002000052
:020000040000fa
:0400dc00d00200004e
:020000040000fa
:0400e000d00200004a
:020000040000fa
:0400e400d002000046
:020000040000fa
:0400e800d002000042
:020000040000fa
:0400ec00d00200003e
:020000040000fa
:0400f000d00200003a
:020000040000fa
:0400f400d002000036
:020000040000fa
:0400f800d002000032
:020000040000fa
:0400fc00d00200002e
:020000040000fa
:04010000d002000029
:020000040000fa
:04010400d002000025
:020000040000fa
:04010800d002000021
:020000040000fa
:04010c00d00200001d
:020000040000fa
:04011000d002000019
:020000040000fa
:04011400d002000015
:020000040000fa
:04011800d002000011
:020000040000fa
:04011c00d00200000d
:020000040000fa
:04012000d002000009
:020000040000fa
:04012400d002000005
:020000040000fa
:04012800d002000001
:020000040000fa
:04012c00d0020000fd
:020000040000fa
:04013000d0020000f9
:020000040000fa
:04013400d0020000f5
:020000040000fa
:04020800d002000020
:020000040000fa
:04020c00d00200001c
:020000040000fa
:04021000d002000018
:020000040000fa
:04021400d002000014
:020000040000fa
:04021800d002000010
:020000040000fa
:04021c00d00200000c
:020000040000fa
:04022000d002000008
:020000040000fa
:04022400d002000004
:020000040000fa
:04022800d002000000
:020000040000fa
:04022c00d0020000fc
:020000040000fa
:04023000d0020000f8
:020000040000fa
:04023400d0020000f4
:020000040000fa
:04023800d0020000f0
:020000040000fa
:04023c00d0020000ec
:020000040000fa
:04024000d0020000e8
:020000040000fa
:04024400d0020000e4
:020000040000fa
:04024800d0020000e0
:020000040000fa
:04024c00d0020000dc
:020000040000fa
:04025000d0020000d8
:020000040000fa
:04025400d0020000d4
:020000040000fa
:04025800d0020000d0
:020000040000fa
:04025c00d0020000cc
:020000040000fa
:04026000d0020000c8
:020000040000fa
:04026400d0020000c4
:020000040000fa
:04026800d0020000c0
:020000040000fa
:04026c00d0020000bc
:020000040000fa
:04027000d0020000b8
:020000040000fa
:04027400d0020000b4
:020000040000fa
:04027800d0020000b0
:020000040000fa
:04027c00d0020000ac
:020000040000fa
:04028000d0020000a8
:020000040000fa
:04028400d0020000a4
:020000040000fa
:04028800d0020000a0
:020000040000fa
:04028c00d00200009c
:020000040000fa
:04029000d002000098
:020000040000fa
:04029400d002000094
:020000040000fa
:04029800d002000090
:020000040000fa
:04029c00d00200008c
:020000040000fa
:0402a000d002000088
:020000040000fa
:0402a400d002000084
:020000040000fa
:0402a800d002000080
:020000040000fa
:0402ac00d00200007c
:020000040000fa
:0402b000d002000078
:020000040000fa
:0402b400d002000074
:020000040000fa
:0402b800d002000070
:020000040000fa
:0402bc00d00200006c
:020000040000fa
:0402c000d002000068
:020000040000fa
:0402c400d002000064
:020000040000fa
:0402c800d002000060
:020000040000fa
:0402cc00d00200005c
:020000040000fa
:0402d000d002000058
:020000040000fa
:0402d400d002000054
:020000040000fa
:0402d800d002000050
:020000040000fa
:0402dc00d00200004c
:020000040000fa
:0402e000d002000048
:020000040000fa
:0402e400d002000044
:020000040000fa
:0402e800d002000040
:020000040000fa
:0402ec00d00200003c
:020000040000fa
:0402f000d002000038
:020000040000fa
:0402f400d002000034
:020000040000fa
:0402f800d002000030
:020000040000fa
:0402fc00d00200002c
:020000040000fa
:04030000d002000027
:020000040000fa
:04030400d002000023
:020000040000fa
:04030800d00200001f
:020000040000fa
:04030c00d00200001b
:020000040000fa
:04031000d002000017
:020000040000fa
:04031400d002000013
:020000040000fa
:04031800d00200000f
:020000040000fa
:04031c00d00200000b
:020000040000fa
:04032000d002000007
:020000040000fa
:04032400d002000003
:020000040000fa
:04032800d0020000ff
:020000040000fa
:04032c00d0020000fb
:020000040000fa
:04033000d0020000f7
:020000040000fa
:04033400d0020000f3
:020000040000fa
:100400000f9620000e7f22000e01880000000000e1
:10041000000020000000e000020032000001200087
:100420002002880014000700d40007000000e0004c
:1004300003003a0060af20000100200002003700f6
:100440000000200001002000810f70000100320038
:1004500014000700000020000000e000020032004d
:1004600000000200000000008e0a020000000000f0
:100470000040da000000fe004440a900c004200053
:100480000000e0000300320000002000a00188000e
:100490004440a800000006008a1f78008b1f7800e7
:1004a0000000060091018800800478000000eb0045
:1004b0001a003700e284440032a0b4009905ba0063
:1004c000e284440032a0b4009906ba00e2844400f9
:1004d00032a0b4000006eb00476fde00fd07b2005b
:1004e000636ce10003003a00ebff07000000eb0043
:1004f0000a003700606ce10004003a00005deb0088
:100500008b05e900fdff3e00040037006168e10053
:10051000010032000086eb000b00070019c7ba008b
:100520001905ba000e04e00003003a000a00e000da
:10053000e0ff3a0000000600fe07b2009e018800be
:100540008a047800f5ff3700395dba008b05e900b1
:100550000c003200295dba008b05e900080032006a
:100560000c00e00003003a00e284440032a0b40032
:10057000f5ff370019ddba008b05e900faff3a00f4
:100580008904e800e184440032a0b40000000600c1
:100590008a060400000000000000040000000000c3
:1005a0000040da000000fe000a00fa0011002000fe
:1005b000b1bf9f00c0bf9f006a8057008a0207003a
:1005c0004fb897000080fa00000006000a00fa0009
:1005d000e20f500034003e00c04a8000e10f50009e
:1005e00003003200e20f500011003a000c00370007
:1005f000032220000300e00001003a000040da007e
:100600002002e200020035002822ef0021e2a800cb
:100610002342ab000d003a002342a8000b00370034
:10062000032320000300e00001003a000040da004c
:100630003002e200020035003822ef0031e2a8006b
:100640003342ab0001003a003342a8008201780037
:100650000b0037003102fb00e10f500004003a00ac
:100660002322ab00feff3a0024118800030037006c
:100670003322ab00feff3a00a41188008301e90099
:100680000300e000f3ff3a00e10f500003003a00de
:100690002302ab00feff32000b0037003302ab0039
:1006a000feff32000800370033002000b3bf9f0078
:1006b000c0bf9f00d1bf9f00e2bf9f006a8057006c
:1006c0004b0207006fb99700020078000080fa0023
:1006d000000006000a00fa0051002000b1bf9f0090
:1006e000c0bf9f006a805700430207005fb89700b1
:1006f0000080fa0000000600889fbe008004780099
:10070000f04a80000000e00004003a000e000700fc
:100710000084eb000000e00008003500f84a80008b
:100720000900e0000500320009004400060007004f
:100730000000e00001003d000084eb0008007800ac
:100740004f04be0000000600800078000100e000b9
:1007500003003a0000002000f04a88000000050075
:100760000080eb0002002000828f500002003e005b
:10077000f14a88000000eb000000060000000500c0
:10078000418f20006a000700800078000080eb00a5
:100790000100e00004003500418f2000a00020008f
:1007a000020007004f80de0000000600889fbe00a8
:1007b0008a1f78000004be00c90090006900900004
:1007c000808f50000500390009007800b70007004d
:1007d0008080eb000000e00016003500084578003e
:1007e0004900900008587800c0049800190078006b
:1007f00000b8a30004003a0000a8a30007003200dc
:10080000ea4f540005003a00090078000d00070087
:100810008080eb000000e00006003a0000c02000ed
:10082000190060000200320049009000e0049800c6
:100830008a80fb00010078004f0578004f04be005d
:1008400000000600889fbe008a1f78000004780020
:100850000800e0000d003a002894200070054400d4
:100860008004eb00580078000000e0000400320033
:10087000f4ff07000000e00001003d008084eb0071
:100880008a0f5400f7ff3a002500370000002200cd
:10089000180060008004eb0021003200a8049000e2
:1008a0000f00370009015100384090000000fb00a4
:1008b0008900780045ff07000000e00007003c00c9
:1008c000280090004004980060049800500c9800a4
:1008d0001890a0008084eb00110037008084440051
:1008e00048019000828f5400eeff390028009000ec
:1008f000400498009800780002c020000281600047
:1009000001003a003800900001e8a3000200320024
:100910006004980001003700500c98008004eb0040
:10092000090078004f0578004f04be000000060063
:10093000889fbe008a9fbe00800478000104780072
:100940002c003700c800900068009000808f500095
:100950000400390008007800540007000000e0009f
:100960003700350000402000180060000900320008
:10097000a1002000090078004200070080057800ef
:100980000b00e00003003200618514000a85450079
:1009900004003700090078003400070000057800e3
:1009a0008005eb0048009000e80090008080500037
:1009b0008a8f500002003100010578008005eb00ad
:1009c0000a017800890078002100070048009000a3
:1009d0000a004000400498000b00e00004003200d0
:1009e0000800780097ff07000000e00014003a00bc
:1009f0008a8444001904e000d2ff3a0000802000fd
:100a00001800600006003200080078008dff070023
:100a1000800078000080eb000100e00009003a004f
:100a200001c02000988060000000eb00050032004b
:100a300048009000600498000000eb0001003700bf
:100a40000080eb004f05be004f04be000000060012
:100a50008001780002003700b15978000201e900f6
:100a60000200e000fcff3a00000006008000780071
:100a7000010178003104e000fdff3a000000510060
:100a8000000006000001eb0000027800b041780091
:100a900081cf510001003a00040178000304e00016
:100aa000f9ff3a000200780000000600889fbe00af
:100ab0008a1f780000047800c80090006801900048
:100ac0000000eb00828f50003c00390018007800d5
:100ad0002200290002016000e20f510007003200ed
:100ae000012024000000e00001003d000120200062
:100af000008c70000080eb00300037000200260000
:100b000002006000820f500009003a003800900097
:100b1000808f5000060039000800780049ff070068
:100b2000800078000080eb000100e00023003a0024
:100b30001805780000c020000000650018003a0089
:100b4000a80490006002200008004000808f54003c
:100b500013003a0000202000ef0007002004980056
:100b60000000e00005003a002904980049049800bc
:100b70008904e80039049800080037000a60a000e2
:100b80000a0c78004004980001202000808040007a
:100b900031049800400c9800500c98000c0007009d
:100ba00028009000500498003800900060049800dd
:100bb00000002600180c70000000eb004f057800c4
:100bc0004f04be0000000600a0682000610037004e
:100bd000881f7800a89520001804e00003003a0060
:100be000f9ff070020c0b300004c78004f047800e4
:100bf00000000600889fbe0000047800080078000e
:100c000010ff070080047800000420001800600036
:100c100002003200280090005a0007000000eb009c
:100c200020049800384090000004e00005003500e2
:100c30000000fb005cfe07000000e0000100320045
:100c40008084eb00181090000000e00008003200e3
:100c5000a0fe07000000e000010032008084eb00ed
:100c600018109000470007000000eb0010149800d7
:100c70000008200018006000150032000001eb00a1
:100c80006000b800439420000202d00063027a00a2
:100c9000880f520005003a000000400081804800a3
:100ca000008041000008eb000600370061004000b2
:100cb000e08048000201e800e80f5000e08f580093
:100cc000f0ff3a00080078002e0007000e00370001
:100cd000000c780000c0eb00304498006002200057
:100ce0000800400020049800400498005004980038
:100cf000400c980060049800500c98007004980014
:100d000076004400000c9800090078004f04be00f3
:100d100000000600881f78000004eb006140b80066
:100d2000e2ff2f00f3ff2f00b500070022952000ff
:100d3000620078000000e00001003200adff070013
:100d40000804e800e80f5400f4ff3a004f0478006c
:100d500000000600010020000100e0000800320051
:100d6000010080000100e000050032008100e90080
:100d7000010088008100d0000200800000b17800ee
:100d8000000006000000e0002f003200c0017800e3
:100d9000e38f51002c0036000308a3002a003a001c
:100da000b14a80000100e00002003200810f5000d3
:100db0000400310011009800b04a88001600370086
:100dc00082007800110190000200e0000200320071
:100dd000800f5100faff3900110278008482400030
:100de000850f500018003900808f520003003a0030
:100df0008308420001007800070037000200e0008d
:100e00000300320083014000830f51000e003900bf
:100e10001200980090009800900090000100e000ff
:100e20000900320010014000828f500006003a0095
:100e3000429520000009eb001001780011084100e4
:100e4000910090001100980000000600889fbe00ed
:100e500000047800a14a80000100e0000200320096
:100e6000010078000d003700b14a80006095200035
:100e700004003700910f5400250036000180e8007f
:100e8000910090000100e000faff3a0010003700e6
:100e9000920f54001e0036000280e8001001780016
:100ea0000200e000faff3a0011017800b14a800028
:100eb0006095200004003700910f540014003600a4
:100ec0000180e80091009000828f5000faff3a0004
:100ed000e94a8000888f54000100310088047800be
:100ee00009007800360007000000e00004003a0026
:100ef000888f5400050032008904d100f5ff3700c7
:100f0000091878009fff0700d2ff37000000eb00b0
:100f10004f04be0000000600881f780063044000f4
:100f20000800a1008000eb00800f54002100360073
:100f3000e30f540001003e00480020000800780044
:100f4000c2ff07008000eb000000e0001900320043
:100f5000900078009101780064815100880f510061
:100f600003003100110190000208780007003700eb
:100f70000881400002087800910190001301980058
:100f80001001780011091400880878001001780019
:100f90000000eb000200e00004003200920190002b
:100fa0000300e000010032000280e800a04a88004f
:100fb0008180e800010078004f04780000000600fe
:100fc000800078000000eb000100e0000500340024
:100fd00001007800c8fd0700e10f400001003a0061
:100fe0000000eb000000060000c0da000000060070
:100ff00000c0da000000060000c0da0000000600b1
:10100000020ab900001bb9000200b80081004200ca
:0810100081004300000006000e
:020000040000fa
:101018005374000061720000746900006e6700007c
:10102800204300006f640000652e00002e2e000093
:10103800004900006e69000074690000616c0000de
:10104800697a0000696e00006720000053500000b4
:10105800492e00002e2e00000048000069200000e4
:101068004461000076690000642100002049000006
:1010780074270000732000006d6500002100000047
:10108800477200006f750000706f00006e0000006e
:1010980050610000636b000065740000205300007d
:0810a800656e000074000000f9
:020000040000fa
:1010b0000000fa00f0192000c0118800800028000c
:1010c0008011880000402000901188000080fa0004
:1010d000000006000000fa00c842a9000080fa00e3
:1010e000000006000000fa00c842a8000080fa00d4
:1010f000000006000200fa00000f78004006200001
:101100009e007800808f5000030034001e0078009d
:101110000000e000020035009e00780001408800d9
:101120000080fa00000006000200fa00e9ff070054
:101130007e009700004078007f0107000e089700ae
:10114000004078007c0107001e08970000407800ee
:10115000790107002e08970000407800760107000b
:101160003e08970000407800730107004e08970082
:1011700000407800700107005e089700004078008a
:101180006d0107006e089700004078006a010700b3
:101190007e08970000407800670107000e10970056
:1011a00000407800640107001e109700004078009e
:1011b000610107002e109700004078005e010700d3
:1011c0003e109700004078005b0107004e1097002a
:1011d00000407800580107005e109700004078003a
:1011e000550107006e10970000407800520107007b
:1011f0007e109700004078004f0107000000eb00d0
:10120000000f78000000eb00000f780009003700a5
:101210009e0078007180400000004000e60057000a
:10122000008040002008970000407800420107003d
:101230001e0fe8001e0897006e0050009e0f500021
:10124000f3ff3c004eb89700004078003a010700d9
:10125000a4ff07000000eb00a6ff07000080fa00d3
:10126000000006000200fa00881f780000047800e1
:10127000e007200070079f000000eb00000f9f00b8
:10128000004080006e004000100f9f000001200011
:10129000200f9f0010002000300f9f000000eb0087
:1012a000400f9f0030012000500f9f00200a2000b7
:1012b000600f9f000000eb00700f9f0010042000e3
:1012c00000179f000009200010179f001009200040
:1012d00020179f00d005200030179f00f00f20003e
:1012e00040179f00e00f200050179f000000eb0008
:1012f00060179f000004200070179f000000eb00a3
:10130000000f78000000eb00000f78000d003700a0
:101310001e007800800040004080200000804000d7
:10132000900078001e01780071004100000040002c
:101330006601570000004100c00eb10001087800ae
:101340001e0fe8001e0897006e0050009e0f500010
:10135000efff3c00cf0eb00040f12f000f00400027
:10136000e1f02f0081004700750009003118780076
:10137000c00eb1000b000700cf0eb10040bf9f00b0
:10138000e2f02f000201470075000900321c7800ce
:10139000c80eb100080078004f0478000080fa0001
:1013a000000006000800fa000000eb00200798008b
:1013b0000000eb00300798000000eb00000f780001
:1013c0000000eb00100798000000eb0010079800e9
:1013d0000a0037001e00900071004000000040002d
:1013e000e600570000804000200897001e0f4000d4
:1013f0001e0090000000e800100798001e089700eb
:10140000ee0050001e009000808f5000f1ff3c0065
:10141000ae0897003e089700808040004e08970075
:10142000808040005e089700808040006e08970032
:10143000808040007e089700808040000e1097005a
:10144000808040001e109700808040002e10970082
:10145000808040003e109700808040004e10970032
:10146000808040005e109700808040006e109700e2
:10147000808040007e109700008040001e004000e9
:1014800020079800ae009000f00f20000080600060
:1014900020079800f10f20002e00900000805000df
:1014a000300798003e0090000080fa00000006001f
:1014b0000600fa0010079800210798000000eb00d2
:1014c000000f78000000eb00000f78000b003700e1
:1014d0001e0078009e0090000080400010407800c0
:1014e0008000fb001e0078000001400040802000ca
:1014f00000004100010878001e0fe8002e00900057
:101500009e007800808f5000f1ff35002e00900083
:10151000f8fe07000080fa0000000600ec00fa0068
:10152000e3fe070020002000c04a8800c080280099
:1015300093fc0700401f2000b0000700401f200060
:10154000ae00070075000700d08128008cfc070062
:10155000401f2000a9000700401f2000a70007002f
:101560004000200060198800c642a9002101200027
:1015700010832800ceff0700cf0eb00040f12f00ef
:101580000f004000750009003e187800c00eb10041
:10159000ce0eb1000e00780032ff0700cf0eb10072
:1015a000cf0eb00040f12f000f0040007500090081
:1015b0003e187800c00eb100ce0eb100dafe070072
:1015c000cf0eb100401f20008c000700401f2000fc
:1015d0008a0007007100200040842800b4ff070043
:0c15e000c084280066fc0700e3ff370011
:020000040000fa
:1015ec0004080000c8000000000000000008000013
:1015fc0002000000000000000208000002000000d1
:10160c000000000058090000020000000200000069
:10161c0001000000cc08000088000000020000005f
:10162c000100000000f20800f308f20008f20800c4
:10163c00f208f20008e208000000000000000000c0
:10164c00000000000000000000000000000000008e
:10165c00000000000002080001011a00091b09002b
:10166c001a091a00091a09001a090a0009000000cf
:10167c00000000000000000000000000000000005e
:10168c000000000000000000000002000802020040
:10169c00420943000942090042094200094209007b
:1016ac0032090000000000000000000000000000f3
:1016bc00000000000000000000000000000000001e
:1016cc00cc08f400081c0900000000000000000019
:1016dc0000000000000000005a0900000200000099
:1016ec00000000005c090000020000000200000085
:1016fc000400000054090000040000000000000079
:10170c005e09000002000000000000000000000064
:020000040000fa
:10171c000000fa00001220001012880000002800bf
:10172c00001288000080fa00000006000200fa0097
:10173c00004f780000000000001280006200600082
:10174c000000e000fcff3a001e80fb004012880005
:10175c000000000000128000610060000000e0004a
:10176c00fcff320040128000004078000080fa003c
:10177c00000006000000fa000000000000128000cb
:10178c00620060000000e000fcff3a00d003200083
:10179c004012880000000000001280006100600010
:1017ac000000e000fcff3200401280000040780096
:1017bc000080fa00000006000200fa00000f78001a
:1017cc0000012800800888000621ef0000000000be
:1017dc001e00780000004000800078003008800077
:1017ec00808f5000faff3e000080fa0000000600d7
:1017fc000200fa00000f780000032800800888001f
:10180c000621ef00000000009e007800f00320008d
:10181c000088b90000007800800078003008800053
:10182c00808f5000f8ff3e000080fa000000060098
:020000040000fa
:020000040002f8
:04aff800bd7b00001d
:020000040000fa
:020000040002f8
:04affc007f3f000093
:00000001FF
